{
  "contractName": "todolist",
  "abi": [
    {
      "constant": true,
      "inputs": [],
      "name": "taskCount",
      "outputs": [
        {
          "name": "",
          "type": "uint256"
        }
      ],
      "payable": false,
      "stateMutability": "view",
      "type": "function"
    }
  ],
  "bytecode": "0x608060405260008055348015601357600080fd5b506098806100226000396000f3fe6080604052600436106039576000357c010000000000000000000000000000000000000000000000000000000090048063b6cb58a514603e575b600080fd5b348015604957600080fd5b5060506066565b6040518082815260200191505060405180910390f35b6000548156fea165627a7a723058208ef235defec76c040665b1df7c395f4915fecd7b87ce7e857c819188c83d746a0029",
  "source": "//SPDX-License-Identifier: MIT\r\npragma solidity >=0.4.22 <0.9.0;\r\n\r\ncontract todolist{\r\n    uint public taskCount = 0;\r\n}",
  "sourcePath": "C:\\Users\\TANU SHREE\\eth-todo-list\\contracts\\TodoList.sol",
  "compiler": {
    "name": "solc",
    "version": "0.5.1+commit.c8a2cb62.Emscripten.clang"
  },
  "schemaVersion": "3.4.15",
  "updatedAt": "2023-08-28T05:08:19.890Z",
  "networkType": "ethereum",
  "devdoc": {
    "methods": {}
  },
  "userdoc": {
    "methods": {}
  }
}